{
  "contractName": "Voting",
  "abi": [
    {
      "anonymous": false,
      "inputs": [
        {
          "indexed": true,
          "internalType": "address",
          "name": "previousOwner",
          "type": "address"
        },
        {
          "indexed": true,
          "internalType": "address",
          "name": "newOwner",
          "type": "address"
        }
      ],
      "name": "OwnershipTransferred",
      "type": "event"
    },
    {
      "anonymous": false,
      "inputs": [
        {
          "indexed": false,
          "internalType": "uint256",
          "name": "proposalId",
          "type": "uint256"
        }
      ],
      "name": "ProposalRegistered",
      "type": "event"
    },
    {
      "anonymous": false,
      "inputs": [
        {
          "indexed": false,
          "internalType": "address",
          "name": "voter",
          "type": "address"
        },
        {
          "indexed": false,
          "internalType": "uint256",
          "name": "proposalId",
          "type": "uint256"
        }
      ],
      "name": "Voted",
      "type": "event"
    },
    {
      "anonymous": false,
      "inputs": [
        {
          "indexed": false,
          "internalType": "address",
          "name": "voterAddress",
          "type": "address"
        }
      ],
      "name": "VoterDeleted",
      "type": "event"
    },
    {
      "anonymous": false,
      "inputs": [
        {
          "indexed": false,
          "internalType": "address",
          "name": "voterAddress",
          "type": "address"
        }
      ],
      "name": "VoterRegistered",
      "type": "event"
    },
    {
      "anonymous": false,
      "inputs": [
        {
          "indexed": false,
          "internalType": "enum Voting.WorkflowStatus",
          "name": "previousStatus",
          "type": "uint8"
        },
        {
          "indexed": false,
          "internalType": "enum Voting.WorkflowStatus",
          "name": "newStatus",
          "type": "uint8"
        }
      ],
      "name": "WorkflowStatusChange",
      "type": "event"
    },
    {
      "inputs": [],
      "name": "owner",
      "outputs": [
        {
          "internalType": "address",
          "name": "",
          "type": "address"
        }
      ],
      "stateMutability": "view",
      "type": "function",
      "constant": true
    },
    {
      "inputs": [],
      "name": "renounceOwnership",
      "outputs": [],
      "stateMutability": "nonpayable",
      "type": "function"
    },
    {
      "inputs": [
        {
          "internalType": "address",
          "name": "newOwner",
          "type": "address"
        }
      ],
      "name": "transferOwnership",
      "outputs": [],
      "stateMutability": "nonpayable",
      "type": "function"
    },
    {
      "inputs": [],
      "name": "winningProposalID",
      "outputs": [
        {
          "internalType": "uint256",
          "name": "",
          "type": "uint256"
        }
      ],
      "stateMutability": "view",
      "type": "function",
      "constant": true
    },
    {
      "inputs": [],
      "name": "workflowStatus",
      "outputs": [
        {
          "internalType": "enum Voting.WorkflowStatus",
          "name": "",
          "type": "uint8"
        }
      ],
      "stateMutability": "view",
      "type": "function",
      "constant": true
    },
    {
      "inputs": [
        {
          "internalType": "address",
          "name": "_addr",
          "type": "address"
        }
      ],
      "name": "getVoter",
      "outputs": [
        {
          "components": [
            {
              "internalType": "bool",
              "name": "isRegistered",
              "type": "bool"
            },
            {
              "internalType": "bool",
              "name": "hasVoted",
              "type": "bool"
            },
            {
              "internalType": "uint256",
              "name": "votedProposalId",
              "type": "uint256"
            }
          ],
          "internalType": "struct Voting.Voter",
          "name": "",
          "type": "tuple"
        }
      ],
      "stateMutability": "view",
      "type": "function",
      "constant": true
    },
    {
      "inputs": [
        {
          "internalType": "uint256",
          "name": "_id",
          "type": "uint256"
        }
      ],
      "name": "getOneProposal",
      "outputs": [
        {
          "components": [
            {
              "internalType": "string",
              "name": "description",
              "type": "string"
            },
            {
              "internalType": "uint256",
              "name": "voteCount",
              "type": "uint256"
            }
          ],
          "internalType": "struct Voting.Proposal",
          "name": "",
          "type": "tuple"
        }
      ],
      "stateMutability": "view",
      "type": "function",
      "constant": true
    },
    {
      "inputs": [
        {
          "internalType": "address",
          "name": "_addr",
          "type": "address"
        }
      ],
      "name": "addVoter",
      "outputs": [],
      "stateMutability": "nonpayable",
      "type": "function"
    },
    {
      "inputs": [
        {
          "internalType": "string",
          "name": "_desc",
          "type": "string"
        }
      ],
      "name": "addProposal",
      "outputs": [],
      "stateMutability": "nonpayable",
      "type": "function"
    },
    {
      "inputs": [
        {
          "internalType": "uint256",
          "name": "_id",
          "type": "uint256"
        }
      ],
      "name": "setVote",
      "outputs": [],
      "stateMutability": "nonpayable",
      "type": "function"
    },
    {
      "inputs": [],
      "name": "startProposalsRegistering",
      "outputs": [],
      "stateMutability": "nonpayable",
      "type": "function"
    },
    {
      "inputs": [],
      "name": "endProposalsRegistering",
      "outputs": [],
      "stateMutability": "nonpayable",
      "type": "function"
    },
    {
      "inputs": [],
      "name": "startVotingSession",
      "outputs": [],
      "stateMutability": "nonpayable",
      "type": "function"
    },
    {
      "inputs": [],
      "name": "endVotingSession",
      "outputs": [],
      "stateMutability": "nonpayable",
      "type": "function"
    },
    {
      "inputs": [],
      "name": "tallyVotes",
      "outputs": [
        {
          "internalType": "uint256",
          "name": "",
          "type": "uint256"
        }
      ],
      "stateMutability": "nonpayable",
      "type": "function"
    },
    {
      "inputs": [],
      "name": "resetDataVote",
      "outputs": [],
      "stateMutability": "nonpayable",
      "type": "function"
    },
    {
      "inputs": [
        {
          "internalType": "address",
          "name": "_addr",
          "type": "address"
        }
      ],
      "name": "deleteVoter",
      "outputs": [],
      "stateMutability": "nonpayable",
      "type": "function"
    }
  ],
  "bytecode": "0x60806040523480156200001157600080fd5b5062000032620000266200003860201b60201c565b6200004060201b60201c565b62000104565b600033905090565b60008060009054906101000a900473ffffffffffffffffffffffffffffffffffffffff169050816000806101000a81548173ffffffffffffffffffffffffffffffffffffffff021916908373ffffffffffffffffffffffffffffffffffffffff1602179055508173ffffffffffffffffffffffffffffffffffffffff168173ffffffffffffffffffffffffffffffffffffffff167f8be0079c531659141344cd1fd0a4f28419497f9722a3daafe3b4186f6b6457e060405160405180910390a35050565b61289780620001146000396000f3fe608060405234801561001057600080fd5b506004361061010b5760003560e01c8063a2788cce116100a2578063c88af42f11610071578063c88af42f14610234578063d4f50f981461023e578063ee74c6781461026e578063f2fde38b14610278578063f4ab9adf146102945761010b565b8063a2788cce146101d2578063a7bfab1614610202578063bdc014311461020c578063c7038a4e1461022a5761010b565b806388e1c739116100de57806388e1c739146101705780638da5cb5b1461018c578063959166a4146101aa578063a1edffa2146101b45761010b565b8063230796ae146101105780632fdae3c51461012c578063378a217814610148578063715018a614610166575b600080fd5b61012a60048036038101906101259190611795565b6102b0565b005b61014660048036038101906101419190611827565b61064a565b005b6101506108cd565b60405161015d9190611883565b60405180910390f35b61016e6109bb565b005b61018a600480360381019061018591906118fc565b6109cf565b005b610194610af8565b6040516101a19190611938565b60405180910390f35b6101b2610b21565b005b6101bc610c1c565b6040516101c991906119ca565b60405180910390f35b6101ec60048036038101906101e79190611795565b610c2f565b6040516101f99190611ac1565b60405180910390f35b61020a610d96565b005b610214610e7c565b6040516102219190611883565b60405180910390f35b610232610e82565b005b61023c610ffd565b005b610258600480360381019061025391906118fc565b6110e2565b6040516102659190611b40565b60405180910390f35b61027661120a565b005b610292600480360381019061028d91906118fc565b6112f0565b005b6102ae60048036038101906102a991906118fc565b611373565b005b600460003373ffffffffffffffffffffffffffffffffffffffff1673ffffffffffffffffffffffffffffffffffffffff16815260200190815260200160002060000160009054906101000a900460ff1661033f576040517f08c379a000000000000000000000000000000000000000000000000000000000815260040161033690611bb8565b60405180910390fd5b6003600581111561035357610352611953565b5b600260009054906101000a900460ff16600581111561037557610374611953565b5b146103b5576040517f08c379a00000000000000000000000000000000000000000000000000000000081526004016103ac90611c4a565b60405180910390fd5b600081036103f8576040517f08c379a00000000000000000000000000000000000000000000000000000000081526004016103ef90611cb6565b60405180910390fd5b60011515600460003373ffffffffffffffffffffffffffffffffffffffff1673ffffffffffffffffffffffffffffffffffffffff16815260200190815260200160002060000160019054906101000a900460ff1615150361048e576040517f08c379a000000000000000000000000000000000000000000000000000000000815260040161048590611d22565b60405180910390fd5b60038054905081106104d5576040517f08c379a00000000000000000000000000000000000000000000000000000000081526004016104cc90611d8e565b60405180910390fd5b6001600460003373ffffffffffffffffffffffffffffffffffffffff1673ffffffffffffffffffffffffffffffffffffffff16815260200190815260200160002060000160016101000a81548160ff02191690831515021790555080600460003373ffffffffffffffffffffffffffffffffffffffff1673ffffffffffffffffffffffffffffffffffffffff168152602001908152602001600020600101819055506003818154811061058b5761058a611dae565b5b906000526020600020906002020160010160008154809291906105ad90611e0c565b91905055506003600154815481106105c8576105c7611dae565b5b906000526020600020906002020160010154600382815481106105ee576105ed611dae565b5b906000526020600020906002020160010154111561060e57806001819055505b7f4d99b957a2bc29a30ebd96a7be8e68fe50a3c701db28a91436490b7d53870ca4338260405161063f929190611e54565b60405180910390a150565b600460003373ffffffffffffffffffffffffffffffffffffffff1673ffffffffffffffffffffffffffffffffffffffff16815260200190815260200160002060000160009054906101000a900460ff166106d9576040517f08c379a00000000000000000000000000000000000000000000000000000000081526004016106d090611bb8565b60405180910390fd5b600160058111156106ed576106ec611953565b5b600260009054906101000a900460ff16600581111561070f5761070e611953565b5b1461074f576040517f08c379a000000000000000000000000000000000000000000000000000000000815260040161074690611ec9565b60405180910390fd5b60405160200161075e90611f0f565b604051602081830303815290604052805190602001208282604051602001610787929190611f6b565b60405160208183030381529060405280519060200120036107dd576040517f08c379a00000000000000000000000000000000000000000000000000000000081526004016107d490612001565b60405180910390fd5b6107e5611666565b82828080601f016020809104026020016040519081016040528093929190818152602001838380828437600081840152601f19601f82011690508083019250505050505050816000018190525060038190806001815401808255809150506001900390600052602060002090600202016000909190919091506000820151816000019081610873919061225c565b506020820151816001015550507f92e393e9b54e2f801d3ea4beb0c5e71a21cc34a5d34b77d0fb8a3aa1650dc18f60016003805490506108b3919061232e565b6040516108c09190611883565b60405180910390a1505050565b60006108d761151c565b600460058111156108eb576108ea611953565b5b600260009054906101000a900460ff16600581111561090d5761090c611953565b5b1461094d576040517f08c379a0000000000000000000000000000000000000000000000000000000008152600401610944906123d4565b60405180910390fd5b6005600260006101000a81548160ff0219169083600581111561097357610972611953565b5b02179055507f0a97a4ee45751e2abf3e4fc8946939630b11b371ea8ae39ccdc3056e98f5cc3f600460056040516109ab9291906123f4565b60405180910390a1600154905090565b6109c361151c565b6109cd600061159a565b565b6109d761151c565b6005808111156109ea576109e9611953565b5b600260009054906101000a900460ff166005811115610a0c57610a0b611953565b5b14610a4c576040517f08c379a0000000000000000000000000000000000000000000000000000000008152600401610a439061248f565b60405180910390fd5b600460008273ffffffffffffffffffffffffffffffffffffffff1673ffffffffffffffffffffffffffffffffffffffff168152602001908152602001600020600080820160006101000a81549060ff02191690556000820160016101000a81549060ff0219169055600182016000905550507faf4c2a533fbd4d43945279bdd38298da41e7b2785811f3fe4f5233a3bd4aea0b81604051610aed9190611938565b60405180910390a150565b60008060009054906101000a900473ffffffffffffffffffffffffffffffffffffffff16905090565b610b2961151c565b600580811115610b3c57610b3b611953565b5b600260009054906101000a900460ff166005811115610b5e57610b5d611953565b5b14610b9e576040517f08c379a0000000000000000000000000000000000000000000000000000000008152600401610b959061248f565b60405180910390fd5b60036000610bac9190611680565b60006001819055506000600260006101000a81548160ff02191690836005811115610bda57610bd9611953565b5b02179055507f0a97a4ee45751e2abf3e4fc8946939630b11b371ea8ae39ccdc3056e98f5cc3f60056000604051610c129291906123f4565b60405180910390a1565b600260009054906101000a900460ff1681565b610c37611666565b600460003373ffffffffffffffffffffffffffffffffffffffff1673ffffffffffffffffffffffffffffffffffffffff16815260200190815260200160002060000160009054906101000a900460ff16610cc6576040517f08c379a0000000000000000000000000000000000000000000000000000000008152600401610cbd90611bb8565b60405180910390fd5b60038281548110610cda57610cd9611dae565b5b9060005260206000209060020201604051806040016040529081600082018054610d039061207f565b80601f0160208091040260200160405190810160405280929190818152602001828054610d2f9061207f565b8015610d7c5780601f10610d5157610100808354040283529160200191610d7c565b820191906000526020600020905b815481529060010190602001808311610d5f57829003601f168201915b505050505081526020016001820154815250509050919050565b610d9e61151c565b60036005811115610db257610db1611953565b5b600260009054906101000a900460ff166005811115610dd457610dd3611953565b5b14610e14576040517f08c379a0000000000000000000000000000000000000000000000000000000008152600401610e0b90611c4a565b60405180910390fd5b6004600260006101000a81548160ff02191690836005811115610e3a57610e39611953565b5b02179055507f0a97a4ee45751e2abf3e4fc8946939630b11b371ea8ae39ccdc3056e98f5cc3f60036004604051610e729291906123f4565b60405180910390a1565b60015481565b610e8a61151c565b60006005811115610e9e57610e9d611953565b5b600260009054906101000a900460ff166005811115610ec057610ebf611953565b5b14610f00576040517f08c379a0000000000000000000000000000000000000000000000000000000008152600401610ef790612521565b60405180910390fd5b6001600260006101000a81548160ff02191690836005811115610f2657610f25611953565b5b0217905550610f33611666565b6040518060400160405280600781526020017f47454e4553495300000000000000000000000000000000000000000000000000815250816000018190525060038190806001815401808255809150506001900390600052602060002090600202016000909190919091506000820151816000019081610fb2919061225c565b506020820151816001015550507f0a97a4ee45751e2abf3e4fc8946939630b11b371ea8ae39ccdc3056e98f5cc3f60006001604051610ff29291906123f4565b60405180910390a150565b61100561151c565b6001600581111561101957611018611953565b5b600260009054906101000a900460ff16600581111561103b5761103a611953565b5b1461107b576040517f08c379a0000000000000000000000000000000000000000000000000000000008152600401611072906125b3565b60405180910390fd5b60028060006101000a81548160ff021916908360058111156110a05761109f611953565b5b02179055507f0a97a4ee45751e2abf3e4fc8946939630b11b371ea8ae39ccdc3056e98f5cc3f600160026040516110d89291906123f4565b60405180910390a1565b6110ea6116a4565b600460003373ffffffffffffffffffffffffffffffffffffffff1673ffffffffffffffffffffffffffffffffffffffff16815260200190815260200160002060000160009054906101000a900460ff16611179576040517f08c379a000000000000000000000000000000000000000000000000000000000815260040161117090611bb8565b60405180910390fd5b600460008373ffffffffffffffffffffffffffffffffffffffff1673ffffffffffffffffffffffffffffffffffffffff1681526020019081526020016000206040518060600160405290816000820160009054906101000a900460ff161515151581526020016000820160019054906101000a900460ff161515151581526020016001820154815250509050919050565b61121261151c565b6002600581111561122657611225611953565b5b600260009054906101000a900460ff16600581111561124857611247611953565b5b14611288576040517f08c379a000000000000000000000000000000000000000000000000000000000815260040161127f90612645565b60405180910390fd5b6003600260006101000a81548160ff021916908360058111156112ae576112ad611953565b5b02179055507f0a97a4ee45751e2abf3e4fc8946939630b11b371ea8ae39ccdc3056e98f5cc3f600260036040516112e69291906123f4565b60405180910390a1565b6112f861151c565b600073ffffffffffffffffffffffffffffffffffffffff168173ffffffffffffffffffffffffffffffffffffffff1603611367576040517f08c379a000000000000000000000000000000000000000000000000000000000815260040161135e906126d7565b60405180910390fd5b6113708161159a565b50565b61137b61151c565b6000600581111561138f5761138e611953565b5b600260009054906101000a900460ff1660058111156113b1576113b0611953565b5b146113f1576040517f08c379a00000000000000000000000000000000000000000000000000000000081526004016113e890612769565b60405180910390fd5b60011515600460008373ffffffffffffffffffffffffffffffffffffffff1673ffffffffffffffffffffffffffffffffffffffff16815260200190815260200160002060000160009054906101000a900460ff16151503611487576040517f08c379a000000000000000000000000000000000000000000000000000000000815260040161147e906127d5565b60405180910390fd5b6001600460008373ffffffffffffffffffffffffffffffffffffffff1673ffffffffffffffffffffffffffffffffffffffff16815260200190815260200160002060000160006101000a81548160ff0219169083151502179055507fb6be2187d059cc2a55fe29e0e503b566e1e0f8c8780096e185429350acffd3dd816040516115119190611938565b60405180910390a150565b61152461165e565b73ffffffffffffffffffffffffffffffffffffffff16611542610af8565b73ffffffffffffffffffffffffffffffffffffffff1614611598576040517f08c379a000000000000000000000000000000000000000000000000000000000815260040161158f90612841565b60405180910390fd5b565b60008060009054906101000a900473ffffffffffffffffffffffffffffffffffffffff169050816000806101000a81548173ffffffffffffffffffffffffffffffffffffffff021916908373ffffffffffffffffffffffffffffffffffffffff1602179055508173ffffffffffffffffffffffffffffffffffffffff168173ffffffffffffffffffffffffffffffffffffffff167f8be0079c531659141344cd1fd0a4f28419497f9722a3daafe3b4186f6b6457e060405160405180910390a35050565b600033905090565b604051806040016040528060608152602001600081525090565b50805460008255600202906000526020600020908101906116a191906116c9565b50565b6040518060600160405280600015158152602001600015158152602001600081525090565b5b808211156116f457600080820160006116e391906116f8565b6001820160009055506002016116ca565b5090565b5080546117049061207f565b6000825580601f106117165750611735565b601f0160209004906000526020600020908101906117349190611738565b5b50565b5b80821115611751576000816000905550600101611739565b5090565b600080fd5b600080fd5b6000819050919050565b6117728161175f565b811461177d57600080fd5b50565b60008135905061178f81611769565b92915050565b6000602082840312156117ab576117aa611755565b5b60006117b984828501611780565b91505092915050565b600080fd5b600080fd5b600080fd5b60008083601f8401126117e7576117e66117c2565b5b8235905067ffffffffffffffff811115611804576118036117c7565b5b6020830191508360018202830111156118205761181f6117cc565b5b9250929050565b6000806020838503121561183e5761183d611755565b5b600083013567ffffffffffffffff81111561185c5761185b61175a565b5b611868858286016117d1565b92509250509250929050565b61187d8161175f565b82525050565b60006020820190506118986000830184611874565b92915050565b600073ffffffffffffffffffffffffffffffffffffffff82169050919050565b60006118c98261189e565b9050919050565b6118d9816118be565b81146118e457600080fd5b50565b6000813590506118f6816118d0565b92915050565b60006020828403121561191257611911611755565b5b6000611920848285016118e7565b91505092915050565b611932816118be565b82525050565b600060208201905061194d6000830184611929565b92915050565b7f4e487b7100000000000000000000000000000000000000000000000000000000600052602160045260246000fd5b6006811061199357611992611953565b5b50565b60008190506119a482611982565b919050565b60006119b482611996565b9050919050565b6119c4816119a9565b82525050565b60006020820190506119df60008301846119bb565b92915050565b600081519050919050565b600082825260208201905092915050565b60005b83811015611a1f578082015181840152602081019050611a04565b60008484015250505050565b6000601f19601f8301169050919050565b6000611a47826119e5565b611a5181856119f0565b9350611a61818560208601611a01565b611a6a81611a2b565b840191505092915050565b611a7e8161175f565b82525050565b60006040830160008301518482036000860152611aa18282611a3c565b9150506020830151611ab66020860182611a75565b508091505092915050565b60006020820190508181036000830152611adb8184611a84565b905092915050565b60008115159050919050565b611af881611ae3565b82525050565b606082016000820151611b146000850182611aef565b506020820151611b276020850182611aef565b506040820151611b3a6040850182611a75565b50505050565b6000606082019050611b556000830184611afe565b92915050565b600082825260208201905092915050565b7f596f75277265206e6f74206120766f7465720000000000000000000000000000600082015250565b6000611ba2601283611b5b565b9150611bad82611b6c565b602082019050919050565b60006020820190508181036000830152611bd181611b95565b9050919050565b7f566f74696e672073657373696f6e20686176656e74207374617274656420796560008201527f7400000000000000000000000000000000000000000000000000000000000000602082015250565b6000611c34602183611b5b565b9150611c3f82611bd8565b604082019050919050565b60006020820190508181036000830152611c6381611c27565b9050919050565b7f796f752063616e277420566f74696e6720666f722047454e4553495300000000600082015250565b6000611ca0601c83611b5b565b9150611cab82611c6a565b602082019050919050565b60006020820190508181036000830152611ccf81611c93565b9050919050565b7f596f75206861766520616c726561647920766f74656400000000000000000000600082015250565b6000611d0c601683611b5b565b9150611d1782611cd6565b602082019050919050565b60006020820190508181036000830152611d3b81611cff565b9050919050565b7f50726f706f73616c206e6f7420666f756e640000000000000000000000000000600082015250565b6000611d78601283611b5b565b9150611d8382611d42565b602082019050919050565b60006020820190508181036000830152611da781611d6b565b9050919050565b7f4e487b7100000000000000000000000000000000000000000000000000000000600052603260045260246000fd5b7f4e487b7100000000000000000000000000000000000000000000000000000000600052601160045260246000fd5b6000611e178261175f565b91507fffffffffffffffffffffffffffffffffffffffffffffffffffffffffffffffff8203611e4957611e48611ddd565b5b600182019050919050565b6000604082019050611e696000830185611929565b611e766020830184611874565b9392505050565b7f50726f706f73616c7320617265206e6f7420616c6c6f77656420796574000000600082015250565b6000611eb3601d83611b5b565b9150611ebe82611e7d565b602082019050919050565b60006020820190508181036000830152611ee281611ea6565b9050919050565b50565b6000611ef9600083611b5b565b9150611f0482611ee9565b600082019050919050565b60006020820190508181036000830152611f2881611eec565b9050919050565b82818337600083830152505050565b6000611f4a8385611b5b565b9350611f57838584611f2f565b611f6083611a2b565b840190509392505050565b60006020820190508181036000830152611f86818486611f3e565b90509392505050565b7f566f7573206e6520706f7576657a20706173206e65207269656e2070726f706f60008201527f7365720000000000000000000000000000000000000000000000000000000000602082015250565b6000611feb602383611b5b565b9150611ff682611f8f565b604082019050919050565b6000602082019050818103600083015261201a81611fde565b9050919050565b7f4e487b7100000000000000000000000000000000000000000000000000000000600052604160045260246000fd5b7f4e487b7100000000000000000000000000000000000000000000000000000000600052602260045260246000fd5b6000600282049050600182168061209757607f821691505b6020821081036120aa576120a9612050565b5b50919050565b60008190508160005260206000209050919050565b60006020601f8301049050919050565b600082821b905092915050565b6000600883026121127fffffffffffffffffffffffffffffffffffffffffffffffffffffffffffffffff826120d5565b61211c86836120d5565b95508019841693508086168417925050509392505050565b6000819050919050565b600061215961215461214f8461175f565b612134565b61175f565b9050919050565b6000819050919050565b6121738361213e565b61218761217f82612160565b8484546120e2565b825550505050565b600090565b61219c61218f565b6121a781848461216a565b505050565b5b818110156121cb576121c0600082612194565b6001810190506121ad565b5050565b601f821115612210576121e1816120b0565b6121ea846120c5565b810160208510156121f9578190505b61220d612205856120c5565b8301826121ac565b50505b505050565b600082821c905092915050565b600061223360001984600802612215565b1980831691505092915050565b600061224c8383612222565b9150826002028217905092915050565b612265826119e5565b67ffffffffffffffff81111561227e5761227d612021565b5b612288825461207f565b6122938282856121cf565b600060209050601f8311600181146122c657600084156122b4578287015190505b6122be8582612240565b865550612326565b601f1984166122d4866120b0565b60005b828110156122fc578489015182556001820191506020850194506020810190506122d7565b868310156123195784890151612315601f891682612222565b8355505b6001600288020188555050505b505050505050565b60006123398261175f565b91506123448361175f565b925082820390508181111561235c5761235b611ddd565b5b92915050565b7f43757272656e7420737461747573206973206e6f7420766f74696e672073657360008201527f73696f6e20656e64656400000000000000000000000000000000000000000000602082015250565b60006123be602a83611b5b565b91506123c982612362565b604082019050919050565b600060208201905081810360008301526123ed816123b1565b9050919050565b600060408201905061240960008301856119bb565b61241660208301846119bb565b9392505050565b7f43757272656e7420737461747573206973206e6f7420566f74657354616c6c6960008201527f6564000000000000000000000000000000000000000000000000000000000000602082015250565b6000612479602283611b5b565b91506124848261241d565b604082019050919050565b600060208201905081810360008301526124a88161246c565b9050919050565b7f5265676973746572696e672070726f706f73616c732063616e7420626520737460008201527f6172746564206e6f770000000000000000000000000000000000000000000000602082015250565b600061250b602983611b5b565b9150612516826124af565b604082019050919050565b6000602082019050818103600083015261253a816124fe565b9050919050565b7f5265676973746572696e672070726f706f73616c7320686176656e742073746160008201527f7274656420796574000000000000000000000000000000000000000000000000602082015250565b600061259d602883611b5b565b91506125a882612541565b604082019050919050565b600060208201905081810360008301526125cc81612590565b9050919050565b7f5265676973746572696e672070726f706f73616c73207068617365206973206e60008201527f6f742066696e6973686564000000000000000000000000000000000000000000602082015250565b600061262f602b83611b5b565b915061263a826125d3565b604082019050919050565b6000602082019050818103600083015261265e81612622565b9050919050565b7f4f776e61626c653a206e6577206f776e657220697320746865207a65726f206160008201527f6464726573730000000000000000000000000000000000000000000000000000602082015250565b60006126c1602683611b5b565b91506126cc82612665565b604082019050919050565b600060208201905081810360008301526126f0816126b4565b9050919050565b7f566f7465727320726567697374726174696f6e206973206e6f74206f70656e2060008201527f7965740000000000000000000000000000000000000000000000000000000000602082015250565b6000612753602383611b5b565b915061275e826126f7565b604082019050919050565b6000602082019050818103600083015261278281612746565b9050919050565b7f416c726561647920726567697374657265640000000000000000000000000000600082015250565b60006127bf601283611b5b565b91506127ca82612789565b602082019050919050565b600060208201905081810360008301526127ee816127b2565b9050919050565b7f4f776e61626c653a2063616c6c6572206973206e6f7420746865206f776e6572600082015250565b600061282b602083611b5b565b9150612836826127f5565b602082019050919050565b6000602082019050818103600083015261285a8161281e565b905091905056fea2646970667358221220b2e70057102a219fe3c32888ca15fc70d0bcbf1f61db8ee0a52a5499a49f9b2e64736f6c63430008110033",
  "immutableReferences": {},
  "source": "// SPDX-License-Identifier: MIT\n\npragma solidity 0.8.17;\nimport \"../node_modules/@openzeppelin/contracts/access/Ownable.sol\";\n\n/// @title A voting system\n/// @author Swuib (sorry is public)\n/// @notice This contract allow you to create a voting system.\n\ncontract Voting is Ownable {\n\n    uint public winningProposalID;\n    \n    struct Voter {\n        bool isRegistered;\n        bool hasVoted;\n        uint votedProposalId;\n    }\n\n    struct Proposal {\n        string description;\n        uint voteCount;\n    }\n\n    enum  WorkflowStatus {\n        RegisteringVoters,\n        ProposalsRegistrationStarted,\n        ProposalsRegistrationEnded,\n        VotingSessionStarted,\n        VotingSessionEnded,\n        VotesTallied\n    }\n\n    WorkflowStatus public workflowStatus;\n    Proposal[] proposalsArray;\n    mapping (address => Voter) voters;\n\n\n    event VoterRegistered(address voterAddress); \n    event VoterDeleted(address voterAddress); \n    event WorkflowStatusChange(WorkflowStatus previousStatus, WorkflowStatus newStatus);\n    event ProposalRegistered(uint proposalId);\n    event Voted (address voter, uint proposalId);\n    \n    modifier onlyVoters() {\n        require(voters[msg.sender].isRegistered, \"You're not a voter\");\n        _;\n    }\n    \n    // on peut faire un modifier pour les tats\n\n    // ::::::::::::: GETTERS ::::::::::::: //\n    /// @notice Return a voter\n    /// @dev Must be called by a registered voter.\n    /// @param _addr the address of the voter\n    /// @return the Voter\n\n    function getVoter(address _addr) external onlyVoters view returns (Voter memory) {\n        return voters[_addr];\n    }\n\n    /// @notice Get a Proposal\n    /// @dev Must be called by a registered voter\n    /// @param _id the id of a proposal\n    /// @return the Proposal\n\n    function getOneProposal(uint _id) external onlyVoters view returns (Proposal memory) {\n        return proposalsArray[_id];\n    }\n\n \n    // ::::::::::::: REGISTRATION ::::::::::::: // \n\n    /// @notice Add a voter\n    /// @dev Must be called by the owner of the contract. Emit a VoterRegistered event.\n    /// @param _addr the address of the voter \n\n    function addVoter(address _addr) external onlyOwner {\n        require(workflowStatus == WorkflowStatus.RegisteringVoters, 'Voters registration is not open yet');\n        require(voters[_addr].isRegistered != true, 'Already registered');\n    \n        voters[_addr].isRegistered = true;\n        emit VoterRegistered(_addr);\n    }\n \n\n    // ::::::::::::: PROPOSAL ::::::::::::: // \n\n    /// @notice Add a proposal\n    /// @dev Must be called by a registered voters. Emit a ProposalRegistered event.\n    /// @param _desc the description of the proposal\n\n    function addProposal(string calldata _desc) external onlyVoters {\n        require(workflowStatus == WorkflowStatus.ProposalsRegistrationStarted, 'Proposals are not allowed yet');\n        require(keccak256(abi.encode(_desc)) != keccak256(abi.encode(\"\")), 'Vous ne pouvez pas ne rien proposer'); // facultatif\n        // voir que desc est different des autres\n\n        Proposal memory proposal;\n        proposal.description = _desc;\n        proposalsArray.push(proposal);\n        emit ProposalRegistered(proposalsArray.length-1);\n    }\n\n    // ::::::::::::: VOTE ::::::::::::: //\n\n    /// @notice Vote for a proposal\n    /// @dev Must be called by a voter. Emit a Voted event.\n    /// @param _id the id of the proposal\n\n    function setVote( uint _id) external onlyVoters {\n        require(workflowStatus == WorkflowStatus.VotingSessionStarted, 'Voting session havent started yet');\n        require(_id != 0, \"you can't Voting for GENESIS\");\n        require(voters[msg.sender].hasVoted != true, 'You have already voted');\n        require(_id < proposalsArray.length, 'Proposal not found'); // pas oblig, et pas besoin du >0 car uint\n\n        voters[msg.sender].hasVoted = true;\n        voters[msg.sender].votedProposalId = _id;\n        proposalsArray[_id].voteCount++;\n\n        if (proposalsArray[_id].voteCount > proposalsArray[winningProposalID].voteCount) {\n            winningProposalID = _id;\n        }\n\n        emit Voted(msg.sender, _id);\n    }\n\n    // ::::::::::::: STATE ::::::::::::: //\n\n    /// @notice Start proposal registering session\n    /// @dev Must be called the owner of the contract. Emit a WorkflowStatusChange event.\n\n    function startProposalsRegistering() external onlyOwner {\n        require(workflowStatus == WorkflowStatus.RegisteringVoters, 'Registering proposals cant be started now');\n        workflowStatus = WorkflowStatus.ProposalsRegistrationStarted;\n        \n        Proposal memory proposal;\n        proposal.description = \"GENESIS\";\n        proposalsArray.push(proposal);\n        \n        emit WorkflowStatusChange(WorkflowStatus.RegisteringVoters, WorkflowStatus.ProposalsRegistrationStarted);\n    }\n\n    /// @notice End proposal registering session\n    /// @dev Must be called the owner of the contract. Emit a WorkflowStatusChange event.\n\n    function endProposalsRegistering() external onlyOwner {\n        require(workflowStatus == WorkflowStatus.ProposalsRegistrationStarted, 'Registering proposals havent started yet');\n        workflowStatus = WorkflowStatus.ProposalsRegistrationEnded;\n        emit WorkflowStatusChange(WorkflowStatus.ProposalsRegistrationStarted, WorkflowStatus.ProposalsRegistrationEnded);\n    }\n\n    /// @notice Start a voting session\n    /// @dev Must be called the owner of the contract. Emit a WorkflowStatusChange event.\n\n    function startVotingSession() external onlyOwner {\n        require(workflowStatus == WorkflowStatus.ProposalsRegistrationEnded, 'Registering proposals phase is not finished');\n        workflowStatus = WorkflowStatus.VotingSessionStarted;\n        emit WorkflowStatusChange(WorkflowStatus.ProposalsRegistrationEnded, WorkflowStatus.VotingSessionStarted);\n    }\n\n    /// @notice End a voting session\n    /// @dev Must be called the owner of the contract. Emit a WorkflowStatusChange event.\n\n    function endVotingSession() external onlyOwner {\n        require(workflowStatus == WorkflowStatus.VotingSessionStarted, 'Voting session havent started yet');\n        workflowStatus = WorkflowStatus.VotingSessionEnded;\n        emit WorkflowStatusChange(WorkflowStatus.VotingSessionStarted, WorkflowStatus.VotingSessionEnded);\n    }\n\n    /// @notice Tally the votes\n    /// @dev Must be called the owner of the contract. Emit a WorkflowStatusChange event.\n    /// @return the winning Proposal ID\n\n    function tallyVotes() external onlyOwner returns (uint){\n        require(workflowStatus == WorkflowStatus.VotingSessionEnded, \"Current status is not voting session ended\");\n\n        workflowStatus = WorkflowStatus.VotesTallied;\n        emit WorkflowStatusChange(WorkflowStatus.VotingSessionEnded, WorkflowStatus.VotesTallied);\n        return winningProposalID;\n    }\n\n    // ::::::::::::: MODIFICATIONS ::::::::::::: //\n\n    /// @notice Reset vote data\n    /// @dev Must be called the owner of the contract. Emit a WorkflowStatusChange event.\n    function resetDataVote() external onlyOwner {\n        require(workflowStatus == WorkflowStatus.VotesTallied, \"Current status is not VotesTallied\");\n\n        delete proposalsArray;\n        winningProposalID = 0;\n\n        workflowStatus = WorkflowStatus.RegisteringVoters;\n        emit WorkflowStatusChange(WorkflowStatus.VotesTallied, WorkflowStatus.RegisteringVoters);\n    }\n\n    /// @notice Delete a voter\n    /// @dev Must be called the owner of the contract. Emit a VoterDeleted event.\n    /// @param _addr the address of the voter \n    function deleteVoter(address _addr) external onlyOwner {\n        require(workflowStatus == WorkflowStatus.VotesTallied, \"Current status is not VotesTallied\");\n\n        delete voters[_addr];\n        \n        emit VoterDeleted(_addr);\n    }\n}",
  "sourcePath": "/Users/sebastienjeanneditdenis/Desktop/Alyra/cours/Semaine-05 dapp/06-Projet #3/Projet#3/truffle/contracts/Voting.sol",
  "compiler": {
    "name": "solc",
    "version": "0.8.17+commit.8df45f5f.Emscripten.clang"
  },
  "schemaVersion": "3.4.10",
  "updatedAt": "2022-11-22T06:07:39.165Z",
  "networkType": "ethereum",
  "devdoc": {
    "author": "Swuib (sorry is public)",
    "kind": "dev",
    "methods": {
      "addProposal(string)": {
        "details": "Must be called by a registered voters. Emit a ProposalRegistered event.",
        "params": {
          "_desc": "the description of the proposal"
        }
      },
      "addVoter(address)": {
        "details": "Must be called by the owner of the contract. Emit a VoterRegistered event.",
        "params": {
          "_addr": "the address of the voter "
        }
      },
      "deleteVoter(address)": {
        "details": "Must be called the owner of the contract. Emit a VoterDeleted event.",
        "params": {
          "_addr": "the address of the voter "
        }
      },
      "endProposalsRegistering()": {
        "details": "Must be called the owner of the contract. Emit a WorkflowStatusChange event."
      },
      "endVotingSession()": {
        "details": "Must be called the owner of the contract. Emit a WorkflowStatusChange event."
      },
      "getOneProposal(uint256)": {
        "details": "Must be called by a registered voter",
        "params": {
          "_id": "the id of a proposal"
        },
        "returns": {
          "_0": "the Proposal"
        }
      },
      "getVoter(address)": {
        "details": "Must be called by a registered voter.",
        "params": {
          "_addr": "the address of the voter"
        },
        "returns": {
          "_0": "the Voter"
        }
      },
      "owner()": {
        "details": "Returns the address of the current owner."
      },
      "renounceOwnership()": {
        "details": "Leaves the contract without owner. It will not be possible to call `onlyOwner` functions anymore. Can only be called by the current owner. NOTE: Renouncing ownership will leave the contract without an owner, thereby removing any functionality that is only available to the owner."
      },
      "resetDataVote()": {
        "details": "Must be called the owner of the contract. Emit a WorkflowStatusChange event."
      },
      "setVote(uint256)": {
        "details": "Must be called by a voter. Emit a Voted event.",
        "params": {
          "_id": "the id of the proposal"
        }
      },
      "startProposalsRegistering()": {
        "details": "Must be called the owner of the contract. Emit a WorkflowStatusChange event."
      },
      "startVotingSession()": {
        "details": "Must be called the owner of the contract. Emit a WorkflowStatusChange event."
      },
      "tallyVotes()": {
        "details": "Must be called the owner of the contract. Emit a WorkflowStatusChange event.",
        "returns": {
          "_0": "the winning Proposal ID"
        }
      },
      "transferOwnership(address)": {
        "details": "Transfers ownership of the contract to a new account (`newOwner`). Can only be called by the current owner."
      }
    },
    "title": "A voting system",
    "version": 1
  },
  "userdoc": {
    "kind": "user",
    "methods": {
      "addProposal(string)": {
        "notice": "Add a proposal"
      },
      "addVoter(address)": {
        "notice": "Add a voter"
      },
      "deleteVoter(address)": {
        "notice": "Delete a voter"
      },
      "endProposalsRegistering()": {
        "notice": "End proposal registering session"
      },
      "endVotingSession()": {
        "notice": "End a voting session"
      },
      "getOneProposal(uint256)": {
        "notice": "Get a Proposal"
      },
      "getVoter(address)": {
        "notice": "Return a voter"
      },
      "resetDataVote()": {
        "notice": "Reset vote data"
      },
      "setVote(uint256)": {
        "notice": "Vote for a proposal"
      },
      "startProposalsRegistering()": {
        "notice": "Start proposal registering session"
      },
      "startVotingSession()": {
        "notice": "Start a voting session"
      },
      "tallyVotes()": {
        "notice": "Tally the votes"
      }
    },
    "notice": "This contract allow you to create a voting system.",
    "version": 1
  }
}