{
  "contractName": "Voting",
  "abi": [
    {
      "anonymous": false,
      "inputs": [
        {
          "indexed": true,
          "internalType": "address",
          "name": "previousOwner",
          "type": "address"
        },
        {
          "indexed": true,
          "internalType": "address",
          "name": "newOwner",
          "type": "address"
        }
      ],
      "name": "OwnershipTransferred",
      "type": "event"
    },
    {
      "anonymous": false,
      "inputs": [
        {
          "indexed": false,
          "internalType": "uint256",
          "name": "proposalId",
          "type": "uint256"
        }
      ],
      "name": "ProposalRegistered",
      "type": "event"
    },
    {
      "anonymous": false,
      "inputs": [
        {
          "indexed": false,
          "internalType": "address",
          "name": "voter",
          "type": "address"
        },
        {
          "indexed": false,
          "internalType": "uint256",
          "name": "proposalId",
          "type": "uint256"
        }
      ],
      "name": "Voted",
      "type": "event"
    },
    {
      "anonymous": false,
      "inputs": [
        {
          "indexed": false,
          "internalType": "address",
          "name": "voterAddress",
          "type": "address"
        }
      ],
      "name": "VoterRegistered",
      "type": "event"
    },
    {
      "anonymous": false,
      "inputs": [
        {
          "indexed": false,
          "internalType": "enum Voting.WorkflowStatus",
          "name": "previousStatus",
          "type": "uint8"
        },
        {
          "indexed": false,
          "internalType": "enum Voting.WorkflowStatus",
          "name": "newStatus",
          "type": "uint8"
        }
      ],
      "name": "WorkflowStatusChange",
      "type": "event"
    },
    {
      "inputs": [],
      "name": "owner",
      "outputs": [
        {
          "internalType": "address",
          "name": "",
          "type": "address"
        }
      ],
      "stateMutability": "view",
      "type": "function",
      "constant": true
    },
    {
      "inputs": [],
      "name": "renounceOwnership",
      "outputs": [],
      "stateMutability": "nonpayable",
      "type": "function"
    },
    {
      "inputs": [
        {
          "internalType": "address",
          "name": "newOwner",
          "type": "address"
        }
      ],
      "name": "transferOwnership",
      "outputs": [],
      "stateMutability": "nonpayable",
      "type": "function"
    },
    {
      "inputs": [],
      "name": "winningProposalID",
      "outputs": [
        {
          "internalType": "uint256",
          "name": "",
          "type": "uint256"
        }
      ],
      "stateMutability": "view",
      "type": "function",
      "constant": true
    },
    {
      "inputs": [],
      "name": "workflowStatus",
      "outputs": [
        {
          "internalType": "enum Voting.WorkflowStatus",
          "name": "",
          "type": "uint8"
        }
      ],
      "stateMutability": "view",
      "type": "function",
      "constant": true
    },
    {
      "inputs": [
        {
          "internalType": "address",
          "name": "_addr",
          "type": "address"
        }
      ],
      "name": "getVoter",
      "outputs": [
        {
          "components": [
            {
              "internalType": "bool",
              "name": "isRegistered",
              "type": "bool"
            },
            {
              "internalType": "bool",
              "name": "hasVoted",
              "type": "bool"
            },
            {
              "internalType": "uint256",
              "name": "votedProposalId",
              "type": "uint256"
            }
          ],
          "internalType": "struct Voting.Voter",
          "name": "",
          "type": "tuple"
        }
      ],
      "stateMutability": "view",
      "type": "function",
      "constant": true
    },
    {
      "inputs": [
        {
          "internalType": "uint256",
          "name": "_id",
          "type": "uint256"
        }
      ],
      "name": "getOneProposal",
      "outputs": [
        {
          "components": [
            {
              "internalType": "string",
              "name": "description",
              "type": "string"
            },
            {
              "internalType": "uint256",
              "name": "voteCount",
              "type": "uint256"
            }
          ],
          "internalType": "struct Voting.Proposal",
          "name": "",
          "type": "tuple"
        }
      ],
      "stateMutability": "view",
      "type": "function",
      "constant": true
    },
    {
      "inputs": [
        {
          "internalType": "address",
          "name": "_addr",
          "type": "address"
        }
      ],
      "name": "addVoter",
      "outputs": [],
      "stateMutability": "nonpayable",
      "type": "function"
    },
    {
      "inputs": [
        {
          "internalType": "string",
          "name": "_desc",
          "type": "string"
        }
      ],
      "name": "addProposal",
      "outputs": [],
      "stateMutability": "nonpayable",
      "type": "function"
    },
    {
      "inputs": [
        {
          "internalType": "uint256",
          "name": "_id",
          "type": "uint256"
        }
      ],
      "name": "setVote",
      "outputs": [],
      "stateMutability": "nonpayable",
      "type": "function"
    },
    {
      "inputs": [],
      "name": "startProposalsRegistering",
      "outputs": [],
      "stateMutability": "nonpayable",
      "type": "function"
    },
    {
      "inputs": [],
      "name": "endProposalsRegistering",
      "outputs": [],
      "stateMutability": "nonpayable",
      "type": "function"
    },
    {
      "inputs": [],
      "name": "startVotingSession",
      "outputs": [],
      "stateMutability": "nonpayable",
      "type": "function"
    },
    {
      "inputs": [],
      "name": "endVotingSession",
      "outputs": [],
      "stateMutability": "nonpayable",
      "type": "function"
    },
    {
      "inputs": [],
      "name": "tallyVotes",
      "outputs": [
        {
          "internalType": "uint256",
          "name": "",
          "type": "uint256"
        }
      ],
      "stateMutability": "nonpayable",
      "type": "function"
    },
    {
      "inputs": [
        {
          "internalType": "address[]",
          "name": "_address",
          "type": "address[]"
        }
      ],
      "name": "resetDataVote",
      "outputs": [],
      "stateMutability": "nonpayable",
      "type": "function"
    }
  ],
  "bytecode": "0x60806040523480156200001157600080fd5b5062000032620000266200003860201b60201c565b6200004060201b60201c565b62000104565b600033905090565b60008060009054906101000a900473ffffffffffffffffffffffffffffffffffffffff169050816000806101000a81548173ffffffffffffffffffffffffffffffffffffffff021916908373ffffffffffffffffffffffffffffffffffffffff1602179055508173ffffffffffffffffffffffffffffffffffffffff168173ffffffffffffffffffffffffffffffffffffffff167f8be0079c531659141344cd1fd0a4f28419497f9722a3daafe3b4186f6b6457e060405160405180910390a35050565b6128b980620001146000396000f3fe608060405234801561001057600080fd5b50600436106101005760003560e01c8063b31d042c11610097578063d4f50f9811610066578063d4f50f9814610229578063ee74c67814610259578063f2fde38b14610263578063f4ab9adf1461027f57610100565b8063b31d042c146101db578063bdc01431146101f7578063c7038a4e14610215578063c88af42f1461021f57610100565b80638da5cb5b116100d35780638da5cb5b14610165578063a1edffa214610183578063a2788cce146101a1578063a7bfab16146101d157610100565b8063230796ae146101055780632fdae3c514610121578063378a21781461013d578063715018a61461015b575b600080fd5b61011f600480360381019061011a9190611714565b61029b565b005b61013b600480360381019061013691906117a6565b610635565b005b6101456108b8565b6040516101529190611802565b60405180910390f35b6101636109a6565b005b61016d6109ba565b60405161017a919061185e565b60405180910390f35b61018b6109e3565b60405161019891906118f0565b60405180910390f35b6101bb60048036038101906101b69190611714565b6109f6565b6040516101c891906119e7565b60405180910390f35b6101d9610b5d565b005b6101f560048036038101906101f09190611a5f565b610c43565b005b6101ff610dfb565b60405161020c9190611802565b60405180910390f35b61021d610e01565b005b610227610f7c565b005b610243600480360381019061023e9190611ad8565b611061565b6040516102509190611b62565b60405180910390f35b610261611189565b005b61027d60048036038101906102789190611ad8565b61126f565b005b61029960048036038101906102949190611ad8565b6112f2565b005b600460003373ffffffffffffffffffffffffffffffffffffffff1673ffffffffffffffffffffffffffffffffffffffff16815260200190815260200160002060000160009054906101000a900460ff1661032a576040517f08c379a000000000000000000000000000000000000000000000000000000000815260040161032190611bda565b60405180910390fd5b6003600581111561033e5761033d611879565b5b600260009054906101000a900460ff1660058111156103605761035f611879565b5b146103a0576040517f08c379a000000000000000000000000000000000000000000000000000000000815260040161039790611c6c565b60405180910390fd5b600081036103e3576040517f08c379a00000000000000000000000000000000000000000000000000000000081526004016103da90611cd8565b60405180910390fd5b60011515600460003373ffffffffffffffffffffffffffffffffffffffff1673ffffffffffffffffffffffffffffffffffffffff16815260200190815260200160002060000160019054906101000a900460ff16151503610479576040517f08c379a000000000000000000000000000000000000000000000000000000000815260040161047090611d44565b60405180910390fd5b60038054905081106104c0576040517f08c379a00000000000000000000000000000000000000000000000000000000081526004016104b790611db0565b60405180910390fd5b6001600460003373ffffffffffffffffffffffffffffffffffffffff1673ffffffffffffffffffffffffffffffffffffffff16815260200190815260200160002060000160016101000a81548160ff02191690831515021790555080600460003373ffffffffffffffffffffffffffffffffffffffff1673ffffffffffffffffffffffffffffffffffffffff168152602001908152602001600020600101819055506003818154811061057657610575611dd0565b5b9060005260206000209060020201600101600081548092919061059890611e2e565b91905055506003600154815481106105b3576105b2611dd0565b5b906000526020600020906002020160010154600382815481106105d9576105d8611dd0565b5b90600052602060002090600202016001015411156105f957806001819055505b7f4d99b957a2bc29a30ebd96a7be8e68fe50a3c701db28a91436490b7d53870ca4338260405161062a929190611e76565b60405180910390a150565b600460003373ffffffffffffffffffffffffffffffffffffffff1673ffffffffffffffffffffffffffffffffffffffff16815260200190815260200160002060000160009054906101000a900460ff166106c4576040517f08c379a00000000000000000000000000000000000000000000000000000000081526004016106bb90611bda565b60405180910390fd5b600160058111156106d8576106d7611879565b5b600260009054906101000a900460ff1660058111156106fa576106f9611879565b5b1461073a576040517f08c379a000000000000000000000000000000000000000000000000000000000815260040161073190611eeb565b60405180910390fd5b60405160200161074990611f31565b604051602081830303815290604052805190602001208282604051602001610772929190611f8d565b60405160208183030381529060405280519060200120036107c8576040517f08c379a00000000000000000000000000000000000000000000000000000000081526004016107bf90612023565b60405180910390fd5b6107d06115e5565b82828080601f016020809104026020016040519081016040528093929190818152602001838380828437600081840152601f19601f8201169050808301925050505050505081600001819052506003819080600181540180825580915050600190039060005260206000209060020201600090919091909150600082015181600001908161085e919061227e565b506020820151816001015550507f92e393e9b54e2f801d3ea4beb0c5e71a21cc34a5d34b77d0fb8a3aa1650dc18f600160038054905061089e9190612350565b6040516108ab9190611802565b60405180910390a1505050565b60006108c261149b565b600460058111156108d6576108d5611879565b5b600260009054906101000a900460ff1660058111156108f8576108f7611879565b5b14610938576040517f08c379a000000000000000000000000000000000000000000000000000000000815260040161092f906123f6565b60405180910390fd5b6005600260006101000a81548160ff0219169083600581111561095e5761095d611879565b5b02179055507f0a97a4ee45751e2abf3e4fc8946939630b11b371ea8ae39ccdc3056e98f5cc3f60046005604051610996929190612416565b60405180910390a1600154905090565b6109ae61149b565b6109b86000611519565b565b60008060009054906101000a900473ffffffffffffffffffffffffffffffffffffffff16905090565b600260009054906101000a900460ff1681565b6109fe6115e5565b600460003373ffffffffffffffffffffffffffffffffffffffff1673ffffffffffffffffffffffffffffffffffffffff16815260200190815260200160002060000160009054906101000a900460ff16610a8d576040517f08c379a0000000000000000000000000000000000000000000000000000000008152600401610a8490611bda565b60405180910390fd5b60038281548110610aa157610aa0611dd0565b5b9060005260206000209060020201604051806040016040529081600082018054610aca906120a1565b80601f0160208091040260200160405190810160405280929190818152602001828054610af6906120a1565b8015610b435780601f10610b1857610100808354040283529160200191610b43565b820191906000526020600020905b815481529060010190602001808311610b2657829003601f168201915b505050505081526020016001820154815250509050919050565b610b6561149b565b60036005811115610b7957610b78611879565b5b600260009054906101000a900460ff166005811115610b9b57610b9a611879565b5b14610bdb576040517f08c379a0000000000000000000000000000000000000000000000000000000008152600401610bd290611c6c565b60405180910390fd5b6004600260006101000a81548160ff02191690836005811115610c0157610c00611879565b5b02179055507f0a97a4ee45751e2abf3e4fc8946939630b11b371ea8ae39ccdc3056e98f5cc3f60036004604051610c39929190612416565b60405180910390a1565b610c4b61149b565b600580811115610c5e57610c5d611879565b5b600260009054906101000a900460ff166005811115610c8057610c7f611879565b5b14610cc0576040517f08c379a0000000000000000000000000000000000000000000000000000000008152600401610cb7906124b1565b60405180910390fd5b60005b82829050811015610d7a5760046000848484818110610ce557610ce4611dd0565b5b9050602002016020810190610cfa9190611ad8565b73ffffffffffffffffffffffffffffffffffffffff1673ffffffffffffffffffffffffffffffffffffffff168152602001908152602001600020600080820160006101000a81549060ff02191690556000820160016101000a81549060ff0219169055600182016000905550508080610d7290611e2e565b915050610cc3565b5060036000610d8991906115ff565b60006001819055506000600260006101000a81548160ff02191690836005811115610db757610db6611879565b5b02179055507f0a97a4ee45751e2abf3e4fc8946939630b11b371ea8ae39ccdc3056e98f5cc3f60056000604051610def929190612416565b60405180910390a15050565b60015481565b610e0961149b565b60006005811115610e1d57610e1c611879565b5b600260009054906101000a900460ff166005811115610e3f57610e3e611879565b5b14610e7f576040517f08c379a0000000000000000000000000000000000000000000000000000000008152600401610e7690612543565b60405180910390fd5b6001600260006101000a81548160ff02191690836005811115610ea557610ea4611879565b5b0217905550610eb26115e5565b6040518060400160405280600781526020017f47454e4553495300000000000000000000000000000000000000000000000000815250816000018190525060038190806001815401808255809150506001900390600052602060002090600202016000909190919091506000820151816000019081610f31919061227e565b506020820151816001015550507f0a97a4ee45751e2abf3e4fc8946939630b11b371ea8ae39ccdc3056e98f5cc3f60006001604051610f71929190612416565b60405180910390a150565b610f8461149b565b60016005811115610f9857610f97611879565b5b600260009054906101000a900460ff166005811115610fba57610fb9611879565b5b14610ffa576040517f08c379a0000000000000000000000000000000000000000000000000000000008152600401610ff1906125d5565b60405180910390fd5b60028060006101000a81548160ff0219169083600581111561101f5761101e611879565b5b02179055507f0a97a4ee45751e2abf3e4fc8946939630b11b371ea8ae39ccdc3056e98f5cc3f60016002604051611057929190612416565b60405180910390a1565b611069611623565b600460003373ffffffffffffffffffffffffffffffffffffffff1673ffffffffffffffffffffffffffffffffffffffff16815260200190815260200160002060000160009054906101000a900460ff166110f8576040517f08c379a00000000000000000000000000000000000000000000000000000000081526004016110ef90611bda565b60405180910390fd5b600460008373ffffffffffffffffffffffffffffffffffffffff1673ffffffffffffffffffffffffffffffffffffffff1681526020019081526020016000206040518060600160405290816000820160009054906101000a900460ff161515151581526020016000820160019054906101000a900460ff161515151581526020016001820154815250509050919050565b61119161149b565b600260058111156111a5576111a4611879565b5b600260009054906101000a900460ff1660058111156111c7576111c6611879565b5b14611207576040517f08c379a00000000000000000000000000000000000000000000000000000000081526004016111fe90612667565b60405180910390fd5b6003600260006101000a81548160ff0219169083600581111561122d5761122c611879565b5b02179055507f0a97a4ee45751e2abf3e4fc8946939630b11b371ea8ae39ccdc3056e98f5cc3f60026003604051611265929190612416565b60405180910390a1565b61127761149b565b600073ffffffffffffffffffffffffffffffffffffffff168173ffffffffffffffffffffffffffffffffffffffff16036112e6576040517f08c379a00000000000000000000000000000000000000000000000000000000081526004016112dd906126f9565b60405180910390fd5b6112ef81611519565b50565b6112fa61149b565b6000600581111561130e5761130d611879565b5b600260009054906101000a900460ff1660058111156113305761132f611879565b5b14611370576040517f08c379a00000000000000000000000000000000000000000000000000000000081526004016113679061278b565b60405180910390fd5b60011515600460008373ffffffffffffffffffffffffffffffffffffffff1673ffffffffffffffffffffffffffffffffffffffff16815260200190815260200160002060000160009054906101000a900460ff16151503611406576040517f08c379a00000000000000000000000000000000000000000000000000000000081526004016113fd906127f7565b60405180910390fd5b6001600460008373ffffffffffffffffffffffffffffffffffffffff1673ffffffffffffffffffffffffffffffffffffffff16815260200190815260200160002060000160006101000a81548160ff0219169083151502179055507fb6be2187d059cc2a55fe29e0e503b566e1e0f8c8780096e185429350acffd3dd81604051611490919061185e565b60405180910390a150565b6114a36115dd565b73ffffffffffffffffffffffffffffffffffffffff166114c16109ba565b73ffffffffffffffffffffffffffffffffffffffff1614611517576040517f08c379a000000000000000000000000000000000000000000000000000000000815260040161150e90612863565b60405180910390fd5b565b60008060009054906101000a900473ffffffffffffffffffffffffffffffffffffffff169050816000806101000a81548173ffffffffffffffffffffffffffffffffffffffff021916908373ffffffffffffffffffffffffffffffffffffffff1602179055508173ffffffffffffffffffffffffffffffffffffffff168173ffffffffffffffffffffffffffffffffffffffff167f8be0079c531659141344cd1fd0a4f28419497f9722a3daafe3b4186f6b6457e060405160405180910390a35050565b600033905090565b604051806040016040528060608152602001600081525090565b50805460008255600202906000526020600020908101906116209190611648565b50565b6040518060600160405280600015158152602001600015158152602001600081525090565b5b8082111561167357600080820160006116629190611677565b600182016000905550600201611649565b5090565b508054611683906120a1565b6000825580601f1061169557506116b4565b601f0160209004906000526020600020908101906116b391906116b7565b5b50565b5b808211156116d05760008160009055506001016116b8565b5090565b600080fd5b600080fd5b6000819050919050565b6116f1816116de565b81146116fc57600080fd5b50565b60008135905061170e816116e8565b92915050565b60006020828403121561172a576117296116d4565b5b6000611738848285016116ff565b91505092915050565b600080fd5b600080fd5b600080fd5b60008083601f84011261176657611765611741565b5b8235905067ffffffffffffffff81111561178357611782611746565b5b60208301915083600182028301111561179f5761179e61174b565b5b9250929050565b600080602083850312156117bd576117bc6116d4565b5b600083013567ffffffffffffffff8111156117db576117da6116d9565b5b6117e785828601611750565b92509250509250929050565b6117fc816116de565b82525050565b600060208201905061181760008301846117f3565b92915050565b600073ffffffffffffffffffffffffffffffffffffffff82169050919050565b60006118488261181d565b9050919050565b6118588161183d565b82525050565b6000602082019050611873600083018461184f565b92915050565b7f4e487b7100000000000000000000000000000000000000000000000000000000600052602160045260246000fd5b600681106118b9576118b8611879565b5b50565b60008190506118ca826118a8565b919050565b60006118da826118bc565b9050919050565b6118ea816118cf565b82525050565b600060208201905061190560008301846118e1565b92915050565b600081519050919050565b600082825260208201905092915050565b60005b8381101561194557808201518184015260208101905061192a565b60008484015250505050565b6000601f19601f8301169050919050565b600061196d8261190b565b6119778185611916565b9350611987818560208601611927565b61199081611951565b840191505092915050565b6119a4816116de565b82525050565b600060408301600083015184820360008601526119c78282611962565b91505060208301516119dc602086018261199b565b508091505092915050565b60006020820190508181036000830152611a0181846119aa565b905092915050565b60008083601f840112611a1f57611a1e611741565b5b8235905067ffffffffffffffff811115611a3c57611a3b611746565b5b602083019150836020820283011115611a5857611a5761174b565b5b9250929050565b60008060208385031215611a7657611a756116d4565b5b600083013567ffffffffffffffff811115611a9457611a936116d9565b5b611aa085828601611a09565b92509250509250929050565b611ab58161183d565b8114611ac057600080fd5b50565b600081359050611ad281611aac565b92915050565b600060208284031215611aee57611aed6116d4565b5b6000611afc84828501611ac3565b91505092915050565b60008115159050919050565b611b1a81611b05565b82525050565b606082016000820151611b366000850182611b11565b506020820151611b496020850182611b11565b506040820151611b5c604085018261199b565b50505050565b6000606082019050611b776000830184611b20565b92915050565b600082825260208201905092915050565b7f596f75277265206e6f74206120766f7465720000000000000000000000000000600082015250565b6000611bc4601283611b7d565b9150611bcf82611b8e565b602082019050919050565b60006020820190508181036000830152611bf381611bb7565b9050919050565b7f566f74696e672073657373696f6e20686176656e74207374617274656420796560008201527f7400000000000000000000000000000000000000000000000000000000000000602082015250565b6000611c56602183611b7d565b9150611c6182611bfa565b604082019050919050565b60006020820190508181036000830152611c8581611c49565b9050919050565b7f796f752063616e277420566f74696e6720666f722047454e4553495300000000600082015250565b6000611cc2601c83611b7d565b9150611ccd82611c8c565b602082019050919050565b60006020820190508181036000830152611cf181611cb5565b9050919050565b7f596f75206861766520616c726561647920766f74656400000000000000000000600082015250565b6000611d2e601683611b7d565b9150611d3982611cf8565b602082019050919050565b60006020820190508181036000830152611d5d81611d21565b9050919050565b7f50726f706f73616c206e6f7420666f756e640000000000000000000000000000600082015250565b6000611d9a601283611b7d565b9150611da582611d64565b602082019050919050565b60006020820190508181036000830152611dc981611d8d565b9050919050565b7f4e487b7100000000000000000000000000000000000000000000000000000000600052603260045260246000fd5b7f4e487b7100000000000000000000000000000000000000000000000000000000600052601160045260246000fd5b6000611e39826116de565b91507fffffffffffffffffffffffffffffffffffffffffffffffffffffffffffffffff8203611e6b57611e6a611dff565b5b600182019050919050565b6000604082019050611e8b600083018561184f565b611e9860208301846117f3565b9392505050565b7f50726f706f73616c7320617265206e6f7420616c6c6f77656420796574000000600082015250565b6000611ed5601d83611b7d565b9150611ee082611e9f565b602082019050919050565b60006020820190508181036000830152611f0481611ec8565b9050919050565b50565b6000611f1b600083611b7d565b9150611f2682611f0b565b600082019050919050565b60006020820190508181036000830152611f4a81611f0e565b9050919050565b82818337600083830152505050565b6000611f6c8385611b7d565b9350611f79838584611f51565b611f8283611951565b840190509392505050565b60006020820190508181036000830152611fa8818486611f60565b90509392505050565b7f566f7573206e6520706f7576657a20706173206e65207269656e2070726f706f60008201527f7365720000000000000000000000000000000000000000000000000000000000602082015250565b600061200d602383611b7d565b915061201882611fb1565b604082019050919050565b6000602082019050818103600083015261203c81612000565b9050919050565b7f4e487b7100000000000000000000000000000000000000000000000000000000600052604160045260246000fd5b7f4e487b7100000000000000000000000000000000000000000000000000000000600052602260045260246000fd5b600060028204905060018216806120b957607f821691505b6020821081036120cc576120cb612072565b5b50919050565b60008190508160005260206000209050919050565b60006020601f8301049050919050565b600082821b905092915050565b6000600883026121347fffffffffffffffffffffffffffffffffffffffffffffffffffffffffffffffff826120f7565b61213e86836120f7565b95508019841693508086168417925050509392505050565b6000819050919050565b600061217b612176612171846116de565b612156565b6116de565b9050919050565b6000819050919050565b61219583612160565b6121a96121a182612182565b848454612104565b825550505050565b600090565b6121be6121b1565b6121c981848461218c565b505050565b5b818110156121ed576121e26000826121b6565b6001810190506121cf565b5050565b601f82111561223257612203816120d2565b61220c846120e7565b8101602085101561221b578190505b61222f612227856120e7565b8301826121ce565b50505b505050565b600082821c905092915050565b600061225560001984600802612237565b1980831691505092915050565b600061226e8383612244565b9150826002028217905092915050565b6122878261190b565b67ffffffffffffffff8111156122a05761229f612043565b5b6122aa82546120a1565b6122b58282856121f1565b600060209050601f8311600181146122e857600084156122d6578287015190505b6122e08582612262565b865550612348565b601f1984166122f6866120d2565b60005b8281101561231e578489015182556001820191506020850194506020810190506122f9565b8683101561233b5784890151612337601f891682612244565b8355505b6001600288020188555050505b505050505050565b600061235b826116de565b9150612366836116de565b925082820390508181111561237e5761237d611dff565b5b92915050565b7f43757272656e7420737461747573206973206e6f7420766f74696e672073657360008201527f73696f6e20656e64656400000000000000000000000000000000000000000000602082015250565b60006123e0602a83611b7d565b91506123eb82612384565b604082019050919050565b6000602082019050818103600083015261240f816123d3565b9050919050565b600060408201905061242b60008301856118e1565b61243860208301846118e1565b9392505050565b7f43757272656e7420737461747573206973206e6f7420566f74657354616c6c6960008201527f6564000000000000000000000000000000000000000000000000000000000000602082015250565b600061249b602283611b7d565b91506124a68261243f565b604082019050919050565b600060208201905081810360008301526124ca8161248e565b9050919050565b7f5265676973746572696e672070726f706f73616c732063616e7420626520737460008201527f6172746564206e6f770000000000000000000000000000000000000000000000602082015250565b600061252d602983611b7d565b9150612538826124d1565b604082019050919050565b6000602082019050818103600083015261255c81612520565b9050919050565b7f5265676973746572696e672070726f706f73616c7320686176656e742073746160008201527f7274656420796574000000000000000000000000000000000000000000000000602082015250565b60006125bf602883611b7d565b91506125ca82612563565b604082019050919050565b600060208201905081810360008301526125ee816125b2565b9050919050565b7f5265676973746572696e672070726f706f73616c73207068617365206973206e60008201527f6f742066696e6973686564000000000000000000000000000000000000000000602082015250565b6000612651602b83611b7d565b915061265c826125f5565b604082019050919050565b6000602082019050818103600083015261268081612644565b9050919050565b7f4f776e61626c653a206e6577206f776e657220697320746865207a65726f206160008201527f6464726573730000000000000000000000000000000000000000000000000000602082015250565b60006126e3602683611b7d565b91506126ee82612687565b604082019050919050565b60006020820190508181036000830152612712816126d6565b9050919050565b7f566f7465727320726567697374726174696f6e206973206e6f74206f70656e2060008201527f7965740000000000000000000000000000000000000000000000000000000000602082015250565b6000612775602383611b7d565b915061278082612719565b604082019050919050565b600060208201905081810360008301526127a481612768565b9050919050565b7f416c726561647920726567697374657265640000000000000000000000000000600082015250565b60006127e1601283611b7d565b91506127ec826127ab565b602082019050919050565b60006020820190508181036000830152612810816127d4565b9050919050565b7f4f776e61626c653a2063616c6c6572206973206e6f7420746865206f776e6572600082015250565b600061284d602083611b7d565b915061285882612817565b602082019050919050565b6000602082019050818103600083015261287c81612840565b905091905056fea2646970667358221220e9b806ffeba8cede57d1fa9a7a958ea75414c1c31780848844210fd4d4b48baa64736f6c63430008110033",
  "immutableReferences": {},
  "source": "// SPDX-License-Identifier: MIT\n\npragma solidity 0.8.17;\nimport \"../node_modules/@openzeppelin/contracts/access/Ownable.sol\";\n\n/// @title A voting system\n/// @author Swuib (sorry is public)\n/// @notice This contract allow you to create a voting system.\n\ncontract Voting is Ownable {\n\n    uint public winningProposalID;\n    \n    struct Voter {\n        bool isRegistered;\n        bool hasVoted;\n        uint votedProposalId;\n    }\n\n    struct Proposal {\n        string description;\n        uint voteCount;\n    }\n\n    enum  WorkflowStatus {\n        RegisteringVoters,\n        ProposalsRegistrationStarted,\n        ProposalsRegistrationEnded,\n        VotingSessionStarted,\n        VotingSessionEnded,\n        VotesTallied\n    }\n\n    WorkflowStatus public workflowStatus;\n    Proposal[] proposalsArray;\n    mapping (address => Voter) voters;\n\n\n    event VoterRegistered(address voterAddress); \n    event WorkflowStatusChange(WorkflowStatus previousStatus, WorkflowStatus newStatus);\n    event ProposalRegistered(uint proposalId);\n    event Voted (address voter, uint proposalId);\n    \n    modifier onlyVoters() {\n        require(voters[msg.sender].isRegistered, \"You're not a voter\");\n        _;\n    }\n    \n    // on peut faire un modifier pour les tats\n\n    // ::::::::::::: GETTERS ::::::::::::: //\n    /// @notice Return a voter\n    /// @dev Must be called by a registered voter.\n    /// @param _addr the address of the voter\n    /// @return the Voter\n\n    function getVoter(address _addr) external onlyVoters view returns (Voter memory) {\n        return voters[_addr];\n    }\n\n    /// @notice Get a Proposal\n    /// @dev Must be called by a registered voter\n    /// @param _id the id of a proposal\n    /// @return the Proposal\n\n    function getOneProposal(uint _id) external onlyVoters view returns (Proposal memory) {\n        return proposalsArray[_id];\n    }\n\n \n    // ::::::::::::: REGISTRATION ::::::::::::: // \n\n    /// @notice Add a voter\n    /// @dev Must be called by the owner of the contract. Emit a VoterRegistered event.\n    /// @param _addr the address of the voter \n\n    function addVoter(address _addr) external onlyOwner {\n        require(workflowStatus == WorkflowStatus.RegisteringVoters, 'Voters registration is not open yet');\n        require(voters[_addr].isRegistered != true, 'Already registered');\n    \n        voters[_addr].isRegistered = true;\n        emit VoterRegistered(_addr);\n    }\n \n\n    // ::::::::::::: PROPOSAL ::::::::::::: // \n\n    /// @notice Add a proposal\n    /// @dev Must be called by a registered voters. Emit a ProposalRegistered event.\n    /// @param _desc the description of the proposal\n\n    function addProposal(string calldata _desc) external onlyVoters {\n        require(workflowStatus == WorkflowStatus.ProposalsRegistrationStarted, 'Proposals are not allowed yet');\n        require(keccak256(abi.encode(_desc)) != keccak256(abi.encode(\"\")), 'Vous ne pouvez pas ne rien proposer'); // facultatif\n        // voir que desc est different des autres\n\n        Proposal memory proposal;\n        proposal.description = _desc;\n        proposalsArray.push(proposal);\n        emit ProposalRegistered(proposalsArray.length-1);\n    }\n\n    // ::::::::::::: VOTE ::::::::::::: //\n\n    /// @notice Vote for a proposal\n    /// @dev Must be called by a voter. Emit a Voted event.\n    /// @param _id the id of the proposal\n\n    function setVote( uint _id) external onlyVoters {\n        require(workflowStatus == WorkflowStatus.VotingSessionStarted, 'Voting session havent started yet');\n        require(_id != 0, \"you can't Voting for GENESIS\");\n        require(voters[msg.sender].hasVoted != true, 'You have already voted');\n        require(_id < proposalsArray.length, 'Proposal not found'); // pas oblig, et pas besoin du >0 car uint\n\n        voters[msg.sender].hasVoted = true;\n        voters[msg.sender].votedProposalId = _id;\n        proposalsArray[_id].voteCount++;\n\n        if (proposalsArray[_id].voteCount > proposalsArray[winningProposalID].voteCount) {\n            winningProposalID = _id;\n        }\n\n        emit Voted(msg.sender, _id);\n    }\n\n    // ::::::::::::: STATE ::::::::::::: //\n\n    /// @notice Start proposal registering session\n    /// @dev Must be called the owner of the contract. Emit a WorkflowStatusChange event.\n\n    function startProposalsRegistering() external onlyOwner {\n        require(workflowStatus == WorkflowStatus.RegisteringVoters, 'Registering proposals cant be started now');\n        workflowStatus = WorkflowStatus.ProposalsRegistrationStarted;\n        \n        Proposal memory proposal;\n        proposal.description = \"GENESIS\";\n        proposalsArray.push(proposal);\n        \n        emit WorkflowStatusChange(WorkflowStatus.RegisteringVoters, WorkflowStatus.ProposalsRegistrationStarted);\n    }\n\n    /// @notice End proposal registering session\n    /// @dev Must be called the owner of the contract. Emit a WorkflowStatusChange event.\n\n    function endProposalsRegistering() external onlyOwner {\n        require(workflowStatus == WorkflowStatus.ProposalsRegistrationStarted, 'Registering proposals havent started yet');\n        workflowStatus = WorkflowStatus.ProposalsRegistrationEnded;\n        emit WorkflowStatusChange(WorkflowStatus.ProposalsRegistrationStarted, WorkflowStatus.ProposalsRegistrationEnded);\n    }\n\n    /// @notice Start a voting session\n    /// @dev Must be called the owner of the contract. Emit a WorkflowStatusChange event.\n\n    function startVotingSession() external onlyOwner {\n        require(workflowStatus == WorkflowStatus.ProposalsRegistrationEnded, 'Registering proposals phase is not finished');\n        workflowStatus = WorkflowStatus.VotingSessionStarted;\n        emit WorkflowStatusChange(WorkflowStatus.ProposalsRegistrationEnded, WorkflowStatus.VotingSessionStarted);\n    }\n\n    /// @notice End a voting session\n    /// @dev Must be called the owner of the contract. Emit a WorkflowStatusChange event.\n\n    function endVotingSession() external onlyOwner {\n        require(workflowStatus == WorkflowStatus.VotingSessionStarted, 'Voting session havent started yet');\n        workflowStatus = WorkflowStatus.VotingSessionEnded;\n        emit WorkflowStatusChange(WorkflowStatus.VotingSessionStarted, WorkflowStatus.VotingSessionEnded);\n    }\n\n    /// @notice Tally the votes\n    /// @dev Must be called the owner of the contract. Emit a WorkflowStatusChange event.\n    /// @return the winning Proposal ID\n\n    function tallyVotes() external onlyOwner returns (uint){\n        require(workflowStatus == WorkflowStatus.VotingSessionEnded, \"Current status is not voting session ended\");\n\n        workflowStatus = WorkflowStatus.VotesTallied;\n        emit WorkflowStatusChange(WorkflowStatus.VotingSessionEnded, WorkflowStatus.VotesTallied);\n        return winningProposalID;\n    }\n\n    /// @notice Reset vote data\n    /// @dev Must be called the owner of the contract. Emit a WorkflowStatusChange event.\n\n    function resetDataVote(address[] calldata _address) external onlyOwner {\n        require(workflowStatus == WorkflowStatus.VotesTallied, \"Current status is not VotesTallied\");\n\n        for (uint i = 0; i < _address.length; i++) {\n            delete voters[_address[i]];\n        }\n        delete proposalsArray;\n        winningProposalID = 0;\n\n        workflowStatus = WorkflowStatus.RegisteringVoters;\n        emit WorkflowStatusChange(WorkflowStatus.VotesTallied, WorkflowStatus.RegisteringVoters);\n    }\n}",
  "sourcePath": "/Users/sebastienjeanneditdenis/Desktop/Alyra/cours/Semaine-05 dapp/06-Projet #3/Projet#3/truffle/contracts/Voting.sol",
  "compiler": {
    "name": "solc",
    "version": "0.8.17+commit.8df45f5f.Emscripten.clang"
  },
  "schemaVersion": "3.4.10",
  "updatedAt": "2022-11-21T02:02:27.111Z",
  "networkType": "ethereum",
  "devdoc": {
    "author": "Swuib (sorry is public)",
    "kind": "dev",
    "methods": {
      "addProposal(string)": {
        "details": "Must be called by a registered voters. Emit a ProposalRegistered event.",
        "params": {
          "_desc": "the description of the proposal"
        }
      },
      "addVoter(address)": {
        "details": "Must be called by the owner of the contract. Emit a VoterRegistered event.",
        "params": {
          "_addr": "the address of the voter "
        }
      },
      "endProposalsRegistering()": {
        "details": "Must be called the owner of the contract. Emit a WorkflowStatusChange event."
      },
      "endVotingSession()": {
        "details": "Must be called the owner of the contract. Emit a WorkflowStatusChange event."
      },
      "getOneProposal(uint256)": {
        "details": "Must be called by a registered voter",
        "params": {
          "_id": "the id of a proposal"
        },
        "returns": {
          "_0": "the Proposal"
        }
      },
      "getVoter(address)": {
        "details": "Must be called by a registered voter.",
        "params": {
          "_addr": "the address of the voter"
        },
        "returns": {
          "_0": "the Voter"
        }
      },
      "owner()": {
        "details": "Returns the address of the current owner."
      },
      "renounceOwnership()": {
        "details": "Leaves the contract without owner. It will not be possible to call `onlyOwner` functions anymore. Can only be called by the current owner. NOTE: Renouncing ownership will leave the contract without an owner, thereby removing any functionality that is only available to the owner."
      },
      "resetDataVote(address[])": {
        "details": "Must be called the owner of the contract. Emit a WorkflowStatusChange event."
      },
      "setVote(uint256)": {
        "details": "Must be called by a voter. Emit a Voted event.",
        "params": {
          "_id": "the id of the proposal"
        }
      },
      "startProposalsRegistering()": {
        "details": "Must be called the owner of the contract. Emit a WorkflowStatusChange event."
      },
      "startVotingSession()": {
        "details": "Must be called the owner of the contract. Emit a WorkflowStatusChange event."
      },
      "tallyVotes()": {
        "details": "Must be called the owner of the contract. Emit a WorkflowStatusChange event.",
        "returns": {
          "_0": "the winning Proposal ID"
        }
      },
      "transferOwnership(address)": {
        "details": "Transfers ownership of the contract to a new account (`newOwner`). Can only be called by the current owner."
      }
    },
    "title": "A voting system",
    "version": 1
  },
  "userdoc": {
    "kind": "user",
    "methods": {
      "addProposal(string)": {
        "notice": "Add a proposal"
      },
      "addVoter(address)": {
        "notice": "Add a voter"
      },
      "endProposalsRegistering()": {
        "notice": "End proposal registering session"
      },
      "endVotingSession()": {
        "notice": "End a voting session"
      },
      "getOneProposal(uint256)": {
        "notice": "Get a Proposal"
      },
      "getVoter(address)": {
        "notice": "Return a voter"
      },
      "resetDataVote(address[])": {
        "notice": "Reset vote data"
      },
      "setVote(uint256)": {
        "notice": "Vote for a proposal"
      },
      "startProposalsRegistering()": {
        "notice": "Start proposal registering session"
      },
      "startVotingSession()": {
        "notice": "Start a voting session"
      },
      "tallyVotes()": {
        "notice": "Tally the votes"
      }
    },
    "notice": "This contract allow you to create a voting system.",
    "version": 1
  }
}